:020000040800F2
:1000000008050020C9000008711B0008E31900085A
:1000100000000000000000000000000000000000E0
:10002000000000000000000000000000751B000838
:100030000000000000000000731B0008771B000890
:10004000DB00000800000000DB000008DB00000807
:10005000DB000008DB000008DB000008DB00000814
:1000600000000000FD080008DB000008DB000008BD
:10007000ED0800083D1C00084D1C000800000000B1
:10008000DB0000080000000000000000DB000008AA
:1000900000000000DB000008DB000008DB000008B7
:1000A00000000000DB00000800000000DB0000088A
:1000B0000448854600F008FC00480047412200083B
:1000C000C046C04608050020044880470448004751
:1000D000FEE7FEE7FEE7FEE7FEE7FEE7E11B0008BE
:1000E000B100000830B50B46014600202022012453
:1000F00009E00D46D5409D4205D31D469540491B5C
:100100002546954040191546521E002DF1DC30BDA4
:10011000F0B51FB40646002082B005464024019188
:1001200000901BE0019922460F46304600F020F86F
:10013000049A059B801A994110D31046194622460D
:1001400000F0E0F9361A8F41019722460120002184
:10015000009F00F0D7F938184D4100902046641EEA
:100160000028DFDC019B00982946324607B0F0BD2D
:1001700010B5202A04DB0846203AD040002110BDEB
:100180000B46D340D0402024A21A91400843194680
:1001900010BDD2B201E00270401C491EFBD2704774
:1001A0000022F6E710B513460A4604461946FFF743
:1001B000F0FF204610BDF8B502464A40D40F420079
:1001C0004B0052085B089A4202D20246084611468A
:1001D0004A0023D0C30D4A00DDB2120EAD1A202D05
:1001E00035DA49020126490AF6058A19002C00D0A1
:1001F000524220214F1B1146B9402A411018C20D0E
:100200009A4221D0002C17D0012D08DCDA05801A83
:10021000D20F8019D207DBB200F09FF9F8BDDA05E2
:10022000801A012340001B06C01880185A4280180B
:10023000CA0F1043490007E04908C2071143DA0515
:10024000801A80194008801800F07FF9F8BD61001D
:100250000122511A001BF7E70122D2075140AAE7F9
:100260000122D2075040A6E770B502464A40D50F9A
:1002700040004A00ED0740085208002814D0002A28
:1002800012D0C40DD30D41020120C0055202490A0B
:10029000520AE41A091812187D34914201D3641CE1
:1002A00000E04900002C01DA002070BD00239142DB
:1002B00001D3891A0343400849000028F7D10029D7
:1002C0000AD0914202D10121C90705E0914201D231
:1002D000012101E00121C943E005C018401900F0E7
:1002E00034F970BDF0B507460846584087B0C00FD6
:1002F000049048000E46590040084908BC1A88413D
:1003000005D2384631461E4617460B46024658006F
:10031000400810434DD0300D039040055900400D6A
:10032000490D0590401A0290402873DA1803012104
:10033000000B09050843019004980092002806D09C
:100340001146019A49420020904100910190029883
:1003500040210A1A0199009800F0D4F805460C468D
:100360006B4607CB00F0DEF8C0197141039A0E0D01
:100370000023D71756401A467A40164344D0049AB1
:10038000002A2DD0029A012A039A15DC1205C01A00
:10039000914101263605001C7141D20F059ED207FE
:1003A0000093019202962A46234600F01CF907B0FA
:1003B000F0BD38463146FAE71605234A0F46B21813
:1003C000C01AB74101210905001C4F4100187F41A7
:1003D000114618187941E20F10436D19644113E07A
:1003E000E2076D0815436408C2071443039A012607
:1003F0001205C01A91413605001C7141CE07400814
:1004000030434908C01851412A46234600F0DEF81F
:10041000CDE7FFE7049801224000C117121A00231C
:100420008B4104983146C417381AA141EEE730B425
:100430000124E407634030BC54E730B40124E407EE
:10044000614030BC4EE700000000E0FF10B5002224
:100450009623114600F081F810BD000070B5CD0F55
:100460004A0009030123090B1B0519430B4BED0738
:100470000024520D9A4201DA002070BD074B34333C
:100480009A4203DC9A1AFFF773FE02E004495118FE
:1004900088402C43F1D0404270BD0000FF030000B3
:1004A000CDFBFFFFC20FD207400040080BD0C10DAB
:1004B0000723DB01C91840020905400A1143C2089D
:1004C000400711437047002001467047CB0FDB0700
:1004D000490010B5490802460A4307D00A0D07240F
:1004E0000903E401090B121B002A01DC002010BDE6
:1004F000C900440F0C43C100E018D205801800F079
:1005000024F810BD10B5202A04DB0146203A9140A2
:10051000002010BD914020239C1A0346E34019435C
:10052000904010BD10B5202A06DBCB170846203AB4
:100530001041C1170B4306E00B461341D040202465
:10054000A21A91400843194610BD002904DA401C44
:10055000490001D140084000704770B40024050CE8
:1005600005D11024000402D1002921D01124050E48
:1005700001D100020834050F01D10001241D850FAF
:1005800001D18000A41C002801DB4000641C00296C
:1005900008D020252E1B0D46F540A14000D001219A
:1005A0002943084301061B1B000ADB1D02D500205E
:1005B00070BC7047DB05181880180029F8DA401C59
:1005C0004900F5D170BC40084000704710B5002BC1
:1005D00008DA0024401C614192185B411A4301D1A2
:1005E0004008400010BDF0B51FB482B005460C00B5
:1005F00003D0084601F0A7FB02E001F0A4FB203085
:100600000246009021462846FFF77CFF049B059A8E
:1006100004460F4618431143084314D018461043AC
:100620001BD0009840210A1A18460599FFF7A0FD33
:1006300005460E46009A05990498FFF763FF0843A4
:1006400005D0012004E02046394607B0F0BD002067
:10065000C11705430E432C43374300990E98630599
:10066000401A7905E40A00220C43FD0A0A3002D53B
:1006700000200146E9E70105101969410C9C0D9D18
:1006800000196941FFF7A2FFDFE70000F0B51FB4D2
:1006900088B00B990998002448400999C00F490077
:1006A00049080991C0070B990090490049080B912E
:1006B00009990898A64608431CD00B990A98084344
:1006C00018D0099801244000420D4800410D0998B6
:1006D00024050003000B204309900B980003000B36
:1006E00020430B9050181C494018002201901446DA
:1006F000104605E0002001460DB0F0BD032801DAE8
:10070000034600E003239C46C11A0AAE0AE05F00DC
:1007100008ADED5B4F00F75B7D430027AA187C41D5
:10072000491C5B1E6145F2DD410004AB5A522104B5
:10073000120C0A43240C401C0828DFDB01980290AD
:100740000099704601910090059B049A07990698BC
:10075000FFF749FFD0E700000DFCFFFFF0B50C46A6
:100760005C4085B0E40FE40703944C000026640865
:1007700059009446490802460296224321D0624617
:100780000A431ED06200570D4A000E032303550D85
:10079000012402462C492405781B1B0B360B4018FC
:1007A00023432643614600901C46501AB44103D3AC
:1007B0000098401C009002E0921800985B410028CD
:1007C00003DA0020014605B0F0BD00200121090533
:1007D0000746864611E064461D46141BB54106D304
:1007E0006546521BB341744607430C43A646CD07EA
:1007F00040084908284392185B4105460D43EAD159
:100800001046184313D060461946504071400843C3
:1008100006D06046101AB34106D20122002306E03A
:1008200000220123DB0702E00122D243531000988B
:1008300074460105381C6141029C039D0019694101
:10084000FFF7C4FEBFE70000FD03000070B54B00DA
:100850005B0803430BD04B005C0D0026334665421A
:10086000B341D417AD1AA34102DB0020014670BD8D
:1008700012053018514170BD0EB5C217C10F50405E
:10088000CA0740180021054B0293019200910A46C5
:100890000B46FFF7A8FE03B000BD000033040000C4
:1008A00010B5002904DB0124E40740428C412146B5
:1008B000002B04DB1C460123DB075242A3418B4281
:1008C00000D1824210BD0000064C0125064E05E015
:1008D000E36807CC2B430C3C98471034B442F7D361
:1008E000FFF7EAFB082400082824000810B5024896
:1008F00000F0C3F810BD00002C00002010B5024825
:1009000000F032FA10BD00006C00002010B5044663
:100910000068054940181421FFF7E4FB80002064BB
:100920000248E06310BD0000F8FFFDBF0000024078
:1009300072B6FEE7F8B50025044620340095227D06
:10094000012A39D00123237502689668760767D497
:10095000384F4E68BE424DD0966A0F78BB401E435A
:1009600096620123C26A1B079A421FD0012A1DD03A
:10097000022A1BD0032A19D0042A17D0052A15D021
:10098000062A13D0072A11D002688B6856697607A9
:10099000760FB3420AD05369DB08DB00536100686D
:1009A00042690B7A5B075B0F1A43426108681028A3
:1009B00004D0112802D038E00220F8BD1E4B9A68FE
:1009C000102807D00120800502439A60086810288B
:1009D00003D02AE00120C005F6E71948174900684E
:1009E000FFF780FB0A21484300E0401E00900028EA
:1009F000FBD11AE0906A0E78B34098439062086881
:100A0000102801D0112810D10B498A68102804D071
:100A10000120800582438A6007E00120C005F9E7D4
:100A2000816B202211438163012500202075284617
:100A3000F8BD0000011000000027014040420F00F7
:100A40002400002010B50B4800880A4CA41F6169DF
:100A5000401860616078401C60706078642807D33B
:100A600061786069FFF73EFBA080002060706061E4
:100A700010BD000006000020704770B504460068F5
:100A80000168490702D54168490705D4016809078B
:100A900030D5416809072DD5A16BC90604D4A16BD7
:100AA000012252021143A163C1680C250905890F77
:100AB00000291AD1A17E002917D10168090714D590
:100AC000816801224907002908DB4168A943416088
:100AD000A06B110288431043A06306E0A06B2021A5
:100AE0000843A063E06B1043E0632046FFF7AAFFD2
:100AF000206805602068016809060DD54068000679
:100B00000AD5A06B012109040843A063204600F028
:100B1000D9F821688020086020680168C90613D5CB
:100B20004168C90610D5A16A1025012902D0C16803
:100B3000C90707D0E16B02221143E163056020463B
:100B4000FFF79AFF2068056070BD0000F8B500252A
:100B50000446002805D0A06B26462036002802D087
:100B600007E00120F8BD0020E0633075204600F06A
:100B7000ABF8A06B1022C006002870DB20688168EB
:100B800049076CD4A16B1301994302231943A16354
:100B900081688907890F012905D10168C9070FD12B
:100BA000C16809040CD4C16818239943A368194388
:100BB000C16020680169636889008908194301617F
:100BC0002068C1683D4B1940C160207E8103607E72
:100BD000C0030143A07E43031943A36A012B02D043
:100BE00001231B0300E000231943E3681943236931
:100BF000022B09D0002319433379E67E5B001943A9
:100C00000123012E02D00AE00423F4E7002827D0B4
:100C1000A06B20263043A063E06B1843E063E069DB
:100C20000646FF3EC23E02D0266A3043014320689A
:100C3000C6680E43C6600126E06A3607B04213D08C
:100C4000012811D002280FD003280DD004280BD082
:100C5000052809D0062807D0072805D010E028E08D
:100C6000012000040143DAE720684669F608F6002F
:100C7000466120684669A78D7F077F0F3E43466126
:100C80002068C0680E4E3040884207D10020E063E3
:100C9000A06B80088000401CA06308E0A06B0221CC
:100CA00088431043A063E06B1843E06301252846A6
:100CB000F8BDA06B1043A063F8E700001902FEFF27
:100CC000E7FF3F837047000070B586B005461421EA
:100CD0006846FFF765FA20492868884239D11F49DC
:100CE0008A69401502438A618A69024005924A690D
:100CF000000202434A61496900260140059104202F
:100D0000009003200190092069460296C00600F079
:100D1000A1F81348134C41C4802026606060400055
:100D2000A06080002661E0600320000360610D4840
:100D3000083C00F067F8002801D0FFF7F9FD2C63AC
:100D4000002211460C20656200F0D2F90C2000F060
:100D5000C3F906B070BD000000240140001002403D
:100D6000080002406C000020F0B4C16B0C68016800
:100D70000B680422056C1646AE4026420DD05E0775
:100D80000BD50B689B0602D40B6893430B60016C78
:100D90008A40C16B4A60C16A19E00227AF4002462F
:100DA000274001262032002F15D09F0713D50B684E
:100DB0009B0604D40B680A24A3430B605670036C93
:100DC00002219940C36B596000211170816A00298A
:100DD00016D0F0BC08470827AF40274210D01B07A9
:100DE0000ED50B680E24A3430B60036C314699406B
:100DF000C36B59608663567000211170016BE6E782
:100E0000F0BC704770B504001FD002202546203585
:100E10006870206802680E49A3680A406168266904
:100E20001943E3683343194363691943A3691943B9
:100E3000E3691943114301602046FFF767FD002075
:100E4000A06301216970287070BD012070BD000091
:100E50000FC0FFFFF8B5002294E0012797403B4008
:100E60007ED00C79A407A40F012C01D0022C10D144
:100E7000856854000326A640B543CE68A6402E439D
:100E8000866044680D79BC43ED06ED0F954025431F
:100E900045600C79E443A40708D0C56854000326D4
:100EA000A640B5438E68A6402E43C6600C79A407C1
:100EB000A40F022C0CD1D408A40027183D6A5407B3
:100EC000E40E0F26A640B5430E69A6402E433E62AF
:100ED000056854000326A640B5430E79B607B60F41
:100EE000A6402E4306604C68A403A40F49D0284CAA
:100EF000A56901263543A561A4699508344000948D
:100F0000244CAD002F19BD689407240F0F26A6406E
:100F1000B5430926F606B04201D100260FE01E4E69
:100F2000B04201D101260AE01C4EB04201D1022696
:100F300005E01B4EB04201D1032600E00526A64085
:100F40002E43BE60174D2C684E689C43F60300D5B7
:100F50001C432C606C684E689C43B60302D500E0CD
:100F60000FE01C436C60AC684E689C43F60200D5F1
:100F70001C43AC60EC684E689C43B60200D51C4331
:100F8000EC60521C0B681C46D44000D065E7F8BDED
:100F90000010024000000140000400480008004822
:100FA000000C004800040140002A01D08161704714
:100FB0008162704701488068704700001800002077
:100FC00070B504000FD021681548086021681548E5
:100FD000086003CC41602068083C21688860FFF706
:100FE000E9FF05460CE0012070BDFFF7E3FF401B61
:100FF000272805D92068C068400701D0032070BDAC
:101000002068C0684007F0D120680269E1688A4220
:1010100001D0016101E004490160002070BD0000C1
:10102000CCCC000055550000AAAA00000068024977
:101030000160002070470000AAAA000002488168F1
:1010400002788918816070471800002010B50648A2
:101050000168102211430160002000F007F800F041
:1010600027F8002010BD00000020024070B50446A3
:101070000D4D7D202978C000FFF734F801460B485C
:101080000068FFF72FF800F0CFFA002809D1042CF0
:1010900007D200222146401E00F02AF800206C6092
:1010A00070BD012070BD0000180000202400002049
:1010B00008B50848816901221143816181691140A5
:1010C0000091C26901040A43C261C06908400090EE
:1010D00008BD000000100240002805DBC106C90E53
:1010E00001208840014908607047000000E100E0ED
:1010F00010B500F057FE10BDF8B50D4604005AD0EB
:101100003A480068C007C00FA8420AD237480168B1
:1011100049084900294301600068C007C00FA84280
:1011200049D12068324E81070CD5400704D570683C
:1011300007210902084370607068F0218843A168A4
:10114000084370602078C00725D0606801280ED061
:10115000316802280ED0890700292CDA71688908C5
:10116000890001437160FFF725FF07460CE03168F5
:101170008903F1E78901EFE7FFF71CFFC11B1D4859
:10118000814201D90320F8BD70680C2108406168D4
:1011900089008842F0D115480168C907C90FA942E2
:1011A0000BD9016849084900294301600068C0075C
:1011B000C00FA84201D00120F8BD2078400706D515
:1011C0007068072109028843E1680843706000F0F5
:1011D00017F87168084A0906090F515CC8400749A9
:1011E00008600020FFF742FF0020F8BD0020024009
:1011F0000010024088130000B423000824000020DF
:1012000010B514A00FC888B06C460FC415A00FC845
:101210000FC4184A53680C20194601401648042987
:1012200016D0082914D19902090F6C46645CD16A62
:1012300004AA0907090F525CD90305D500231946F2
:10124000FEF766FF214601E020460C4900F092FDC2
:1012500008B010BD02030405060708090A0B0C0DAF
:101260000E0F10100102030405060708090A0B0CF3
:101270000D0E0F100010024000127A0000093D0010
:10128000FEB5040076D02078E44DC00753D06868DE
:101290000007800F012807D068680007800F022828
:1012A00009D16868C00306D52868800343D5606803
:1012B0000028E7D03FE06068012813D001218904AD
:1012C000002814D0052818D02A68881082432A6084
:1012D0002868884328606068002820D0FFF76AFEED
:1012E000064618E02868012109040843F2E7286847
:1012F0000122120490432860EAE728680843286026
:1013000029680120000401432960E4E7FFF752FE49
:10131000801B642875D828688003F7D50BE0FFF799
:1013200049FE064604E0FFF745FE801B6428F1D81D
:1013300028688003F7D4207801268007002843DA44
:1013400068680007800F07D068680007800F0228D0
:1013500011D16868C0030ED42868800702D5E06800
:10136000012807D12868F82188432169C90008436A
:10137000286029E04DE1E0680028286815D0304356
:101380002860FFF717FE074604E0FFF713FEC01BB7
:101390000228BFD828688007F7D52968F82081433C
:1013A0002069C000014329600EE040084000286029
:1013B000FFF700FE074604E0FFF7FCFDC01B022814
:1013C000A8D828688007F7D42078000722D5E069DC
:1013D0000028686A0ED030436862FFF7EBFD0746CD
:1013E00004E0FFF7E7FDC01B022893D8686A800776
:1013F000F7D50FE0400840006862FFF7DBFD0746C5
:1014000005E09DE0FFF7D6FDC01B02288FD8686A73
:101410008007F7D4207804274007002860DA0020EE
:101420000190E869C00008D4E969B8060143E961A0
:10143000E969014001200091019079480168C905DE
:1014400011D40168821511430160FFF7B3FD0090CC
:1014500005E0FFF7AFFD0099401A642870D8704886
:101460000068C005F5D5A06801280AD0002801D081
:10147000052810D0286A400840002862286AB8432E
:1014800001E0286A30432862A068002812D0FFF7E4
:1014900091FD00900AE0286A38432862F1E7FFF7DF
:1014A00089FD0099411A5F48814249D8286A80071E
:1014B000F5D50DE0FFF77EFD009006E0FFF77AFD21
:1014C0000099411A574881423AD8286A8007F5D4D2
:1014D0000198002804D0E869012109078843E861E0
:1014E0002078C00635D5606901280CD0401D686B96
:1014F00023D038436863686B400840006863FFF797
:1015000059FD064622E0686B38436863686B3043D8
:101510006863FFF74FFD064604E0FFF74BFD801BB5
:1015200002285BD8686B8007F7D5686BF821884381
:10153000A169C900084368630BE0B8436863F4E736
:101540004CE0FFF737FD801B022847D8686B800707
:10155000F7D4206A00285ED069680907890F02293C
:1015600042D001273F060228286805D0B8432860EA
:10157000FFF720FD044633E0B8432860FFF71AFD6B
:10158000064604E0FFF716FD801B022826D82868CF
:101590008001F7D4E86AE16A000900010843E862C3
:1015A000616AA06A084369683D22120491430843B6
:1015B0006860286838432860FFF7FCFC044604E0B4
:1015C000FFF7F8FC001B022808D828688001F7D52F
:1015D00021E0FFF7EFFC001B022801D90320FEBD2C
:1015E00028688001F5D416E00128F8D06868E96A17
:1015F00001221204636A02409A420AD10907E26A90
:10160000090F914205D10F2189040840A16A88423F
:1016100001D00120FEBD0020FEBD000000100240F0
:101620000070004088130000094910B5401E884230
:1016300001D9012010BD074C60610321081F00F093
:10164000B1FB0020A06107202061002010BD000038
:10165000FFFFFF0000E000E070477047F0B5024672
:101660002032137F012B1BD00126167702235377DC
:1016700003685D689C687027BD430F682F435F60F7
:101680000068084B984202D0074B984204D180234F
:1016900049689C4321438160567700201077F0BD54
:1016A0000220F0BD002C01400004004070B5040091
:1016B00005D025462035687F002802D006E00120AD
:1016C00070BD00202877204600F014F802206877CB
:1016D000211D206800F0C2FA01224034A271AA77CD
:1016E000EA7722706270A270E270227162716A778A
:1016F000002070BD08B500680D49884217D10D481B
:101700008269C1140A438261806900220840009006
:1017100011460D20FFF7ECFC0D20FFF7DDFC002249
:1017200011460E20FFF7E4FC0E20FFF7D5FC08BDA4
:10173000002C014000100240014620314A7F012A5E
:1017400001D00120704702224A770168CB6801224C
:101750001343CB6000680849884202D00749884299
:1017600004D181684907490F062902D00168114355
:101770000160002070470000002C01400004004080
:10178000F8B5054604462035287F0026012817D0E5
:101790000120287702206877206882687727FF2356
:1017A000BA431B029A4382600868502837D00EDC87
:1017B00020284ED006DC00284BD010281ED148E04F
:1017C0000220F8BD302844D0402817D139E06028E5
:1017D0002DD0702819D001221203801A0FD0904208
:1017E0000CD1CB684A688968206800F075FA2068D7
:1017F0008168012292031143816000E001260120EB
:101800006877002028773046F8BDCB684A68896839
:10181000206800F061FA206881683943ECE7CA6803
:101820004968206800F06BFA5021206806E0CA6819
:101830004968206800F074FA6021206800F057FAC7
:10184000DDE7CA684968206800F059FA402120683D
:10185000F4E7226801461046F0E7704770B5044689
:10186000006801690025C9438907002915DBC168A3
:10187000C943890711D4E91E01610120207720683E
:1018800080698007204602D0FFF7E7FF04E000F000
:1018900096F8204600F094F8257720680169C9433E
:1018A000490717D4C168C943490713D40421C94360
:1018B000016102202077206880698005800F204622
:1018C00002D0FFF7CAFF04E000F079F8204600F0EC
:1018D00077F8257720680169C943090716D4C168DC
:1018E000C943090712D40821C943016104202077A4
:1018F0002068C0698007204602D0FFF7AEFF04E0F1
:1019000000F05DF8204600F05BF82577206801695B
:10191000C943C90617D4C168C943C90613D41021E5
:10192000C9430161082020772068C0698005800FC5
:10193000204602D0FFF791FF04E000F040F8204677
:1019400000F03EF8257720680169C943C90708D12E
:10195000C168C943C90704D1891E0161204600F04E
:1019600031F820680169C943090609D4C168C9432F
:10197000090605D48021C94301612046FFF76CFEAA
:1019800020680169C943490609D4C168C9434906A9
:1019900005D44021C9430161204600F021F82068A8
:1019A0000169C943890609D4C168C943890605D4B8
:1019B0002021C94301612046FFF74FFE70BD7047EB
:1019C0007047000000680449884203D103488168D9
:1019D000491C816070470000002C0140000000207D
:1019E0007047FEE73EB50021174800910191029132
:1019F000416081600124134A04610260C1600422D5
:101A00004261017641768176FF22C176C232C2619F
:101A100002460162203211718462FFF797F80028B4
:101A200001D0FEF785FF02200090C00201906946B8
:101A300002940548FEF77EFF002801D0FEF778FFEC
:101A40003EBD0000002401402C00002008B50848DD
:101A50004169012211434161406910400022009018
:101A600011460920FFF744FB0920FFF735FB08BDAD
:101A70000010024010B586B014216846FEF790FBB6
:101A800011484269012189050A43426142690A40BD
:101A90000592426949110A4342614069092408409C
:101AA000E4060590002210212046FFF77DFA102160
:101AB0000091002101200190029103916946204686
:101AC000FFF7C8F906B010BD0010024010B5094874
:101AD00007490160022141600749C16007498160EF
:101AE000FFF76EFA002801D0FEF722FF10BD0000BC
:101AF00000300040B0000020FF0F0000C4090000CB
:101B000010B586B000240094174801940294039401
:101B1000049414490594016014498460416004618F
:101B2000446109218461C160FFF7C0FD002801D034
:101B3000FEF7FEFE01200003009069460A48FFF709
:101B40001FFE002801D0FEF7F3FE049404A9064806
:101B50000594FFF783FD002801D0FEF7E9FE06B0EB
:101B600010BD0000002C0140C0000020BF1200008A
:101B7000FEE77047704710B5FFF760FA10BD30B54B
:101B800091B030216846FEF70BFB002419200F941A
:101B90000090012001900C94059007900E94000491
:101BA0000990102100010D94022506910A900895D4
:101BB0000B946846FFF764FB002801D072B6FEE77D
:101BC00007200C900E9401210D950F940CA8FFF79F
:101BD00093FA002801D072B6FEE711B030BD0000C4
:101BE000134801680122114301604168114A114004
:101BF00041600168104A11400160016801229204AD
:101C00009143016041683F22120491434160C16ADF
:101C100009090901C162016BFF221432914301637A
:101C2000416B490849004163002181607047000011
:101C3000001002400CB8FF08FFFFF6FE10B5024886
:101C4000FFF70CFE10BD0000C000002010B50248D8
:101C5000FFF704FE10BD0000C000002070B5026850
:101C6000184C194EA04201D0B04204D11346702541
:101C70004A68AB431A43154B154DA04208D0B042F9
:101C800006D0144EB04203D0984201D0A84204D1ED
:101C900003263602B243CE6832438026B2434E69F1
:101CA000324302608A68C2620A688262A04203D03C
:101CB000984201D0A84201D1096901630121416123
:101CC00070BD0000002C01400004004000440140B1
:101CD000004801400020004030B58468FF252D02F7
:101CE0001B021343AC430B432343836030BD826824
:101CF00070239A430A4307210A438260704730B534
:101D0000036A046A6408640004628469F025AC43D1
:101D1000120122430A24A3430B438261036230BDB4
:101D200030B5036A1024A34303628369046A0F2554
:101D30002D031203AB431A43A0239C430901214303
:101D40008261016230BD2021020C01D010211046B9
:101D5000020A01D010460839020901D01046091FB5
:101D6000820801D01046891E420801D0881E7047A3
:101D7000081A7047F8B5040C8BB2264682B25E434F
:101D80000D0C1046370C5843360480190021794158
:101D900016466E43370C36048019794126466E4349
:101DA0008919F8BD8307FF22DB0E9A408907090EC7
:101DB0009940002808DB830809489B00181803682D
:101DC00093430B43036070470007000F08388308F4
:101DD00004489B001818C36993430B43C3617047C1
:101DE00000E400E000ED00E0F8B504464F1EC80036
:101DF0000838211815461E46086849683A460623E1
:101E00009A4310D02A463346FEF740FC3A46D200A9
:101E1000083AA3181A687F1E5B68FEF763FA062269
:101E20003B469343EED1022F23D0042F11D0062F2F
:101E30002FD12A463346FEF729FCE36AA26AFEF751
:101E400051FA2A463346FEF721FC636A226AFEF7FE
:101E500049FA2A463346FEF719FCE369A269FEF700
:101E600041FA2A463346FEF711FC63692269FEF700
:101E700039FA2A463346FEF709FCE368A268FEF702
:101E800031FA2A463346FEF701FC63682268FEF702
:101E900029FAF8BD002210B5134610460149FEF795
:101EA0005DFC10BD0000F03F10B50122FEF7CEFC36
:101EB00010BD002210B5134610461146FEF74EFC29
:101EC00010BD02E008C8121F08C1002AFAD17047ED
:101ED0007047002001E001C1121F002AFBD17047AA
:101EE000014908607047000028000020F0B5C54A8D
:101EF00000248FB091420ADA4B005B08934206D867
:101F000001254A006D05EA4205D1002803D0FFF7FC
:101F1000CBFF0FB0F0BD01252D05A94219DA03430F
:101F200008D0002910DA0120FFF7DAFFFFF7C1FF20
:101F30000FB0F0BD0220FFF7D3FFFFF7ABFF012288
:101F4000D20751400FB0F0BD3524E4433622FEF7EE
:101F50007DFC0A15AC4B1219D4180A03120BAB49BD
:101F6000AB4B56182E403146594011430192321561
:101F700012190B920022FEF75AFA019A0446921C9B
:101F80001003A44E000B0D467E44032860D2204669
:101F900073683268FEF784FC1CD10B98002815D0BA
:101FA000FEF76AFC04460E469B4A9C4BFEF76EFB0E
:101FB0000D4607469A4A9B4B20463146FEF766FB84
:101FC0003A462B46FEF78EF90FB0F0BD71683068C7
:101FD0000FB0F0BD944A954B20462946FEF756FBBC
:101FE0000022934BFEF729FA06460F4622462B465F
:101FF00010461946FEF74AFB32463B46FEF746FBC3
:1020000006460B980F4600281DD0FEF735FC824A85
:10201000824B05910490FEF739FB32463B46FEF7B2
:102020000CFA22462B46FEF702FA04460D467C4A7D
:102030007C4B05990498FEF729FB22462B46FEF7B8
:10204000F6F90FB0F0BD0B46324620462946C4E0F3
:10205000012300229B072046FEF744F902460B4667
:1020600020462946FEF77AFB06460F460B98FEF7F8
:1020700003FC32463B460591049010461946FEF794
:1020800005FB09910C906B490198099B421800923D
:102090000C9A19461046FEF7F9FA024607910A9083
:1020A000654901980B1A6548019303217844079B01
:1020B000FFF79AFE079B0A9AFEF7E8FA0E905F4830
:1020C0000D9104217844079B0A9AFFF78DFE099B26
:1020D0000C9AFEF7DBFA019B009A1A4300920D9BC3
:1020E0000E9AFEF7FFF8009A01910C90002A4DDD40
:1020F0000022D24320462946FEF7A8FB22462B4663
:10210000FEF7C4FA00910A900B9800282BD0424A9F
:10211000424B05990498FEF7B9FA07910E90019B7E
:102120000C9A00990A98FEF7DDF832463B46FEF716
:10213000ADFA079B0E9AFEF7D5F8009B0A9AFEF7B8
:102140007CF922462B46FEF772F904460D46344AC6
:10215000344B05990498FEF799FA22462B46FEF770
:1021600066F90FB0F0BD019B0C9A0A98FEF7BAF819
:1021700032463B46FEF78AFA009B0A9AFEF75DF963
:1021800022462B46FEF759F90FB0F0BD0B980028F8
:1021900027D0214A214B05990498FEF777FA079139
:1021A000009020462946019B0C9AFEF740F93246E2
:1021B0003B46FEF76BFA079B009AFEF738F922467A
:1021C0002B46FEF734F904460D46154A154B059982
:1021D0000498FEF75BFA22462B46FEF728F90FB06B
:1021E000F0BD0B46204629460C9AFEF720F93246F0
:1021F0003B46FEF74BFA22462B46FEF71EF90FB080
:10220000F0BD00000000F07F01FCFFFF645F0900EB
:102210000000F03F74040000763C7935EF39EA3D68
:102220000000E0FE422EE63F555555555555D53F29
:102230000000E03F86EBF9FF51B8060018030000EC
:10224000FEF704FF0B48FEF7BBFE0B48FFF774FADE
:10225000FFF795FCFFF70EFCFFF7F8FBFFF7C2FB5B
:10226000FFF734FCFFF74CFC0248FEF7DFFE00F0FE
:1022700051F8F9E7B0000020C0000020014670B519
:102280000A461C4B1A480B3A9A4230D20846FEF7CF
:10229000DDF801461848FDF7E7FF7F24E4052146F5
:1022A000FDF7DAFF154D01462846FDF7DDFF29460B
:1022B000FDF7DAFFFEF7F6F8FFF718FEFEF706F96E
:1022C0000F49FDF7D1FFFEF7EDF80E4A0E4BFEF772
:1022D00009F8FEF7FBF801462046FDF7C5FFFEF7BB
:1022E000E1F80A4A0A4BFEF7A2F8FEF7EFF870BDD4
:1022F0000000F6C2950F000000F07F4500401C462C
:1023000000E0764583DBB5DCE1796B3F66666666A7
:1023100066127140F8B5194CA088FFF7AFFF184955
:1023200001252061884207D1092001220421C0062D
:10233000FEF73AFEA570F8BD00F026F80746E06803
:1023400000F022F80026874210DA207800280DD00D
:102350000C494843A1688842EDD809200122042194
:10236000C006FEF721FEE570A660F8BD0920002238
:102370000421C006FEF718FEE670F8BD000000203C
:102380000000F6C260EA000070B5FF250446ED05C6
:10239000FEF788F8064BEC4203D30022FEF747F81D
:1023A00002E00022FDF79EFFFEF758F800B270BD74
:1023B0000000E03F000000000000000001020304F4
:1023C000060708090000000004FA97999999D93F77
:1023D000AF788E1DC571CC3F9FC678D0099AC33F98
:1023E000935555555555E53F599322942449D23F6D
:1023F000DE03CB966446C73F44523EDF12F1C23F34
:102400000000000000000000282400080000002058
:102410002C000000C21E0008542400082C000020DC
:10242000DC040000D21E00080000000000000000D4
:10243000000000000000000000000000000000009C
:1024400001000000040000000000000000127A00FB
:042450000000000088
:04000005080000B13E
:00000001FF
